{
  "_format": "hh-sol-artifact-1",
  "contractName": "Marketplace",
  "sourceName": "contracts/Marketplace.sol",
  "abi": [
    {
      "inputs": [
        {
          "internalType": "uint256",
          "name": "_feePercent",
          "type": "uint256"
        }
      ],
      "stateMutability": "nonpayable",
      "type": "constructor"
    },
    {
      "anonymous": false,
      "inputs": [
        {
          "indexed": false,
          "internalType": "uint256",
          "name": "itemId",
          "type": "uint256"
        },
        {
          "indexed": false,
          "internalType": "uint256",
          "name": "tokenId",
          "type": "uint256"
        },
        {
          "indexed": true,
          "internalType": "address",
          "name": "nft",
          "type": "address"
        },
        {
          "indexed": true,
          "internalType": "address",
          "name": "seller",
          "type": "address"
        },
        {
          "indexed": true,
          "internalType": "address",
          "name": "buyer",
          "type": "address"
        },
        {
          "indexed": false,
          "internalType": "uint256",
          "name": "price",
          "type": "uint256"
        }
      ],
      "name": "ItemBought",
      "type": "event"
    },
    {
      "anonymous": false,
      "inputs": [
        {
          "indexed": false,
          "internalType": "uint256",
          "name": "itemId",
          "type": "uint256"
        },
        {
          "indexed": false,
          "internalType": "uint256",
          "name": "tokenId",
          "type": "uint256"
        },
        {
          "indexed": true,
          "internalType": "address",
          "name": "nft",
          "type": "address"
        },
        {
          "indexed": true,
          "internalType": "address",
          "name": "seller",
          "type": "address"
        },
        {
          "indexed": false,
          "internalType": "uint256",
          "name": "price",
          "type": "uint256"
        }
      ],
      "name": "ItemCreated",
      "type": "event"
    },
    {
      "inputs": [
        {
          "internalType": "uint256",
          "name": "_tokenId",
          "type": "uint256"
        },
        {
          "internalType": "uint256",
          "name": "_price",
          "type": "uint256"
        },
        {
          "internalType": "contract IERC721",
          "name": "_nft",
          "type": "address"
        }
      ],
      "name": "createItem",
      "outputs": [],
      "stateMutability": "nonpayable",
      "type": "function"
    },
    {
      "inputs": [],
      "name": "feeAccount",
      "outputs": [
        {
          "internalType": "address payable",
          "name": "",
          "type": "address"
        }
      ],
      "stateMutability": "view",
      "type": "function"
    },
    {
      "inputs": [],
      "name": "feePercent",
      "outputs": [
        {
          "internalType": "uint256",
          "name": "",
          "type": "uint256"
        }
      ],
      "stateMutability": "view",
      "type": "function"
    },
    {
      "inputs": [
        {
          "internalType": "uint256",
          "name": "_itemId",
          "type": "uint256"
        }
      ],
      "name": "getTotalPrice",
      "outputs": [
        {
          "internalType": "uint256",
          "name": "",
          "type": "uint256"
        }
      ],
      "stateMutability": "view",
      "type": "function"
    },
    {
      "inputs": [
        {
          "internalType": "uint256",
          "name": "",
          "type": "uint256"
        }
      ],
      "name": "idToItem",
      "outputs": [
        {
          "internalType": "uint256",
          "name": "itemId",
          "type": "uint256"
        },
        {
          "internalType": "uint256",
          "name": "tokenId",
          "type": "uint256"
        },
        {
          "internalType": "contract IERC721",
          "name": "nft",
          "type": "address"
        },
        {
          "internalType": "address payable",
          "name": "seller",
          "type": "address"
        },
        {
          "internalType": "uint256",
          "name": "price",
          "type": "uint256"
        },
        {
          "internalType": "bool",
          "name": "sold",
          "type": "bool"
        }
      ],
      "stateMutability": "view",
      "type": "function"
    },
    {
      "inputs": [],
      "name": "itemIds",
      "outputs": [
        {
          "internalType": "uint256",
          "name": "",
          "type": "uint256"
        }
      ],
      "stateMutability": "view",
      "type": "function"
    },
    {
      "inputs": [
        {
          "internalType": "uint256",
          "name": "_itemId",
          "type": "uint256"
        }
      ],
      "name": "purchaseItem",
      "outputs": [],
      "stateMutability": "payable",
      "type": "function"
    }
  ],
  "bytecode": "0x60c060405234801561001057600080fd5b50604051611091380380611091833981810160405281019061003291906100af565b3373ffffffffffffffffffffffffffffffffffffffff1660808173ffffffffffffffffffffffffffffffffffffffff16815250508060a08181525050506100dc565b600080fd5b6000819050919050565b61008c81610079565b811461009757600080fd5b50565b6000815190506100a981610083565b92915050565b6000602082840312156100c5576100c4610074565b5b60006100d38482850161009a565b91505092915050565b60805160a051610f8261010f600039600081816101e501526105120152600081816101c101526107060152610f826000f3fe60806040526004361061006f5760003560e01c806387fa1f8e1161004e57806387fa1f8e146100f5578063a36701a91461011e578063ca7dd37514610160578063d38ea5bf1461019d5761006f565b8062b921cb1461007457806365e17c9d1461009f5780637fd6f15c146100ca575b600080fd5b34801561008057600080fd5b506100896101b9565b60405161009691906108ff565b60405180910390f35b3480156100ab57600080fd5b506100b46101bf565b6040516100c1919061095b565b60405180910390f35b3480156100d657600080fd5b506100df6101e3565b6040516100ec91906108ff565b60405180910390f35b34801561010157600080fd5b5061011c600480360381019061011791906109f7565b610207565b005b34801561012a57600080fd5b5061014560048036038101906101409190610a4a565b610483565b60405161015796959493929190610af1565b60405180910390f35b34801561016c57600080fd5b5061018760048036038101906101829190610a4a565b61050c565b60405161019491906108ff565b60405180910390f35b6101b760048036038101906101b29190610a4a565b61056f565b005b60005481565b7f000000000000000000000000000000000000000000000000000000000000000081565b7f000000000000000000000000000000000000000000000000000000000000000081565b6000821161024a576040517f08c379a000000000000000000000000000000000000000000000000000000000815260040161024190610baf565b60405180910390fd5b60008081548092919061025c90610bfe565b91905055506000805490506040518060c001604052808281526020018581526020018373ffffffffffffffffffffffffffffffffffffffff1681526020013373ffffffffffffffffffffffffffffffffffffffff1681526020018481526020016000151581525060016000838152602001908152602001600020600082015181600001556020820151816001015560408201518160020160006101000a81548173ffffffffffffffffffffffffffffffffffffffff021916908373ffffffffffffffffffffffffffffffffffffffff16021790555060608201518160030160006101000a81548173ffffffffffffffffffffffffffffffffffffffff021916908373ffffffffffffffffffffffffffffffffffffffff1602179055506080820151816004015560a08201518160050160006101000a81548160ff0219169083151502179055509050508173ffffffffffffffffffffffffffffffffffffffff166323b872dd3330876040518463ffffffff1660e01b81526004016103e293929190610c56565b600060405180830381600087803b1580156103fc57600080fd5b505af1158015610410573d6000803e3d6000fd5b505050503373ffffffffffffffffffffffffffffffffffffffff168273ffffffffffffffffffffffffffffffffffffffff167fbc725dd7f5b710df07134306aee4b9e1f9d11590ad44fc36948fe3c65a5fe56783878760405161047593929190610c8d565b60405180910390a350505050565b60016020528060005260406000206000915090508060000154908060010154908060020160009054906101000a900473ffffffffffffffffffffffffffffffffffffffff16908060030160009054906101000a900473ffffffffffffffffffffffffffffffffffffffff16908060040154908060050160009054906101000a900460ff16905086565b600060647f0000000000000000000000000000000000000000000000000000000000000000606461053d9190610cc4565b600160008581526020019081526020016000206004015461055e9190610d1a565b6105689190610da3565b9050919050565b60008111801561058157506000548111155b6105c0576040517f08c379a00000000000000000000000000000000000000000000000000000000081526004016105b790610e20565b60405180910390fd5b60006001600083815260200190815260200160002090508060050160009054906101000a900460ff1615610629576040517f08c379a000000000000000000000000000000000000000000000000000000000815260040161062090610e8c565b60405180910390fd5b60006106348361050c565b9050803414610678576040517f08c379a000000000000000000000000000000000000000000000000000000000815260040161066f90610ef8565b60405180910390fd5b60018260050160006101000a81548160ff0219169083151502179055508160030160009054906101000a900473ffffffffffffffffffffffffffffffffffffffff1673ffffffffffffffffffffffffffffffffffffffff166108fc83600401549081150290604051600060405180830381858888f19350505050158015610703573d6000803e3d6000fd5b507f000000000000000000000000000000000000000000000000000000000000000073ffffffffffffffffffffffffffffffffffffffff166108fc83600401548361074e9190610f18565b9081150290604051600060405180830381858888f19350505050158015610779573d6000803e3d6000fd5b508160020160009054906101000a900473ffffffffffffffffffffffffffffffffffffffff1673ffffffffffffffffffffffffffffffffffffffff166323b872dd303385600101546040518463ffffffff1660e01b81526004016107df93929190610c56565b600060405180830381600087803b1580156107f957600080fd5b505af115801561080d573d6000803e3d6000fd5b505050503373ffffffffffffffffffffffffffffffffffffffff168260030160009054906101000a900473ffffffffffffffffffffffffffffffffffffffff1673ffffffffffffffffffffffffffffffffffffffff168360020160009054906101000a900473ffffffffffffffffffffffffffffffffffffffff1673ffffffffffffffffffffffffffffffffffffffff167f2940bc8bda742a9ca8c2946c6d2d2ae9e5d9ac2d9631ebdbcc50bfcd898271c686866001015487600401546040516108d993929190610c8d565b60405180910390a4505050565b6000819050919050565b6108f9816108e6565b82525050565b600060208201905061091460008301846108f0565b92915050565b600073ffffffffffffffffffffffffffffffffffffffff82169050919050565b60006109458261091a565b9050919050565b6109558161093a565b82525050565b6000602082019050610970600083018461094c565b92915050565b600080fd5b610984816108e6565b811461098f57600080fd5b50565b6000813590506109a18161097b565b92915050565b60006109b28261091a565b9050919050565b60006109c4826109a7565b9050919050565b6109d4816109b9565b81146109df57600080fd5b50565b6000813590506109f1816109cb565b92915050565b600080600060608486031215610a1057610a0f610976565b5b6000610a1e86828701610992565b9350506020610a2f86828701610992565b9250506040610a40868287016109e2565b9150509250925092565b600060208284031215610a6057610a5f610976565b5b6000610a6e84828501610992565b91505092915050565b6000819050919050565b6000610a9c610a97610a928461091a565b610a77565b61091a565b9050919050565b6000610aae82610a81565b9050919050565b6000610ac082610aa3565b9050919050565b610ad081610ab5565b82525050565b60008115159050919050565b610aeb81610ad6565b82525050565b600060c082019050610b0660008301896108f0565b610b1360208301886108f0565b610b206040830187610ac7565b610b2d606083018661094c565b610b3a60808301856108f0565b610b4760a0830184610ae2565b979650505050505050565b600082825260208201905092915050565b7f5072696365206d7573742062652067726561746572207468616e207a65726f2e600082015250565b6000610b99602083610b52565b9150610ba482610b63565b602082019050919050565b60006020820190508181036000830152610bc881610b8c565b9050919050565b7f4e487b7100000000000000000000000000000000000000000000000000000000600052601160045260246000fd5b6000610c09826108e6565b91507fffffffffffffffffffffffffffffffffffffffffffffffffffffffffffffffff821415610c3c57610c3b610bcf565b5b600182019050919050565b610c50816109a7565b82525050565b6000606082019050610c6b6000830186610c47565b610c786020830185610c47565b610c8560408301846108f0565b949350505050565b6000606082019050610ca260008301866108f0565b610caf60208301856108f0565b610cbc60408301846108f0565b949350505050565b6000610ccf826108e6565b9150610cda836108e6565b9250827fffffffffffffffffffffffffffffffffffffffffffffffffffffffffffffffff03821115610d0f57610d0e610bcf565b5b828201905092915050565b6000610d25826108e6565b9150610d30836108e6565b9250817fffffffffffffffffffffffffffffffffffffffffffffffffffffffffffffffff0483118215151615610d6957610d68610bcf565b5b828202905092915050565b7f4e487b7100000000000000000000000000000000000000000000000000000000600052601260045260246000fd5b6000610dae826108e6565b9150610db9836108e6565b925082610dc957610dc8610d74565b5b828204905092915050565b7f4974656d20646f65736e27742065786973742e00000000000000000000000000600082015250565b6000610e0a601383610b52565b9150610e1582610dd4565b602082019050919050565b60006020820190508181036000830152610e3981610dfd565b9050919050565b7f4974656d20616c726561647920736f6c642e0000000000000000000000000000600082015250565b6000610e76601283610b52565b9150610e8182610e40565b602082019050919050565b60006020820190508181036000830152610ea581610e69565b9050919050565b7f4e6f7420656e6f7567682066756e64732e000000000000000000000000000000600082015250565b6000610ee2601183610b52565b9150610eed82610eac565b602082019050919050565b60006020820190508181036000830152610f1181610ed5565b9050919050565b6000610f23826108e6565b9150610f2e836108e6565b925082821015610f4157610f40610bcf565b5b82820390509291505056fea26469706673582212207b18892c207e37d8303209b9bb80d59350e779b04703e4535c971a5b09e4cf0f64736f6c63430008090033",
  "linkReferences": {},
  "deployedLinkReferences": {}
}